{
  "contractName": "ERC721TimeLock",
  "abi": [
    {
      "inputs": [
        {
          "internalType": "uint256",
          "name": "_lockPeriod",
          "type": "uint256"
        }
      ],
      "stateMutability": "nonpayable",
      "type": "constructor"
    },
    {
      "anonymous": false,
      "inputs": [
        {
          "indexed": true,
          "internalType": "address",
          "name": "user",
          "type": "address"
        },
        {
          "indexed": true,
          "internalType": "address",
          "name": "tokenAddress",
          "type": "address"
        },
        {
          "indexed": false,
          "internalType": "uint256",
          "name": "tokenId",
          "type": "uint256"
        },
        {
          "indexed": false,
          "internalType": "uint256",
          "name": "unlockTime",
          "type": "uint256"
        },
        {
          "indexed": false,
          "internalType": "bytes32",
          "name": "hash",
          "type": "bytes32"
        }
      ],
      "name": "TokenLocked",
      "type": "event"
    },
    {
      "anonymous": false,
      "inputs": [
        {
          "indexed": true,
          "internalType": "address",
          "name": "user",
          "type": "address"
        },
        {
          "indexed": true,
          "internalType": "address",
          "name": "tokenAddress",
          "type": "address"
        },
        {
          "indexed": false,
          "internalType": "uint256",
          "name": "tokenId",
          "type": "uint256"
        },
        {
          "indexed": false,
          "internalType": "bytes32",
          "name": "hash",
          "type": "bytes32"
        }
      ],
      "name": "TokenUnlocked",
      "type": "event"
    },
    {
      "inputs": [],
      "name": "HASH_BIT_SIZE",
      "outputs": [
        {
          "internalType": "uint256",
          "name": "",
          "type": "uint256"
        }
      ],
      "stateMutability": "view",
      "type": "function"
    },
    {
      "inputs": [],
      "name": "lockPeriod",
      "outputs": [
        {
          "internalType": "uint256",
          "name": "",
          "type": "uint256"
        }
      ],
      "stateMutability": "view",
      "type": "function"
    },
    {
      "inputs": [
        {
          "internalType": "address",
          "name": "",
          "type": "address"
        },
        {
          "internalType": "uint256",
          "name": "",
          "type": "uint256"
        }
      ],
      "name": "lockedTokens",
      "outputs": [
        {
          "internalType": "address",
          "name": "tokenAddress",
          "type": "address"
        },
        {
          "internalType": "uint256",
          "name": "tokenId",
          "type": "uint256"
        },
        {
          "internalType": "uint256",
          "name": "unlockTime",
          "type": "uint256"
        },
        {
          "internalType": "bytes32",
          "name": "hash",
          "type": "bytes32"
        }
      ],
      "stateMutability": "view",
      "type": "function"
    },
    {
      "inputs": [
        {
          "internalType": "address",
          "name": "_tokenAddress",
          "type": "address"
        },
        {
          "internalType": "uint256",
          "name": "_tokenId",
          "type": "uint256"
        },
        {
          "internalType": "bytes32",
          "name": "_hash",
          "type": "bytes32"
        }
      ],
      "name": "lockToken",
      "outputs": [],
      "stateMutability": "nonpayable",
      "type": "function"
    },
    {
      "inputs": [
        {
          "internalType": "uint256",
          "name": "_index",
          "type": "uint256"
        }
      ],
      "name": "unlockToken",
      "outputs": [],
      "stateMutability": "nonpayable",
      "type": "function"
    },
    {
      "inputs": [
        {
          "internalType": "address",
          "name": "_user",
          "type": "address"
        }
      ],
      "name": "getLockedTokens",
      "outputs": [
        {
          "components": [
            {
              "internalType": "address",
              "name": "tokenAddress",
              "type": "address"
            },
            {
              "internalType": "uint256",
              "name": "tokenId",
              "type": "uint256"
            },
            {
              "internalType": "uint256",
              "name": "unlockTime",
              "type": "uint256"
            },
            {
              "internalType": "bytes32",
              "name": "hash",
              "type": "bytes32"
            }
          ],
          "internalType": "struct ERC721TimeLock.LockedToken[]",
          "name": "",
          "type": "tuple[]"
        }
      ],
      "stateMutability": "view",
      "type": "function"
    }
  ],
  "bytecode": "0x608060405234801562000010575f80fd5b50604051620013f1380380620013f18339818101604052810190620000369190620000c4565b5f81116200007b576040517f08c379a0000000000000000000000000000000000000000000000000000000008152600401620000729062000178565b60405180910390fd5b805f819055505062000198565b5f80fd5b5f819050919050565b620000a0816200008c565b8114620000ab575f80fd5b50565b5f81519050620000be8162000095565b92915050565b5f60208284031215620000dc57620000db62000088565b5b5f620000eb84828501620000ae565b91505092915050565b5f82825260208201905092915050565b7f4c6f636b20706572696f64206d7573742062652067726561746572207468616e5f8201527f2030000000000000000000000000000000000000000000000000000000000000602082015250565b5f62000160602283620000f4565b91506200016d8262000104565b604082019050919050565b5f6020820190508181035f830152620001918162000152565b9050919050565b61124b80620001a65f395ff3fe608060405234801561000f575f80fd5b5060043610610060575f3560e01c806303e9d549146100645780633fd8b02f1461008057806353719b6e1461009e578063576c9698146100d15780636b2d95d4146100ef578063dd2e0ac01461011f575b5f80fd5b61007e60048036038101906100799190610bcd565b61013b565b005b610088610450565b6040516100959190610c2c565b60405180910390f35b6100b860048036038101906100b39190610c45565b610455565b6040516100c89493929190610ca1565b60405180910390f35b6100d96104ba565b6040516100e69190610c2c565b60405180910390f35b61010960048036038101906101049190610ce4565b6104c0565b6040516101169190610e37565b60405180910390f35b61013960048036038101906101349190610e57565b6105cb565b005b5f801b811161017f576040517f08c379a000000000000000000000000000000000000000000000000000000000815260040161017690610edc565b60405180910390fd5b5f8373ffffffffffffffffffffffffffffffffffffffff16636352211e846040518263ffffffff1660e01b81526004016101b99190610c2c565b602060405180830381865afa1580156101d4573d5f803e3d5ffd5b505050506040513d601f19601f820116820180604052508101906101f89190610f0e565b90505f73ffffffffffffffffffffffffffffffffffffffff168173ffffffffffffffffffffffffffffffffffffffff1603610268576040517f08c379a000000000000000000000000000000000000000000000000000000000815260040161025f90610fa9565b60405180910390fd5b5f8054426102769190610ff4565b90508473ffffffffffffffffffffffffffffffffffffffff166323b872dd3330876040518463ffffffff1660e01b81526004016102b593929190611027565b5f604051808303815f87803b1580156102cc575f80fd5b505af11580156102de573d5f803e3d5ffd5b5050505060015f3373ffffffffffffffffffffffffffffffffffffffff1673ffffffffffffffffffffffffffffffffffffffff1681526020019081526020015f2060405180608001604052808773ffffffffffffffffffffffffffffffffffffffff16815260200186815260200183815260200185815250908060018154018082558091505060019003905f5260205f2090600402015f909190919091505f820151815f015f6101000a81548173ffffffffffffffffffffffffffffffffffffffff021916908373ffffffffffffffffffffffffffffffffffffffff16021790555060208201518160010155604082015181600201556060820151816003015550508473ffffffffffffffffffffffffffffffffffffffff163373ffffffffffffffffffffffffffffffffffffffff167f77dfb07bb6f781b511be14c4025fae5dd867cfa7ef8e7b0d5c7bf0bc7a4f63ae8684876040516104419392919061105c565b60405180910390a35050505050565b5f5481565b6001602052815f5260405f20818154811061046e575f80fd5b905f5260205f2090600402015f9150915050805f015f9054906101000a900473ffffffffffffffffffffffffffffffffffffffff16908060010154908060020154908060030154905084565b61010081565b606060015f8373ffffffffffffffffffffffffffffffffffffffff1673ffffffffffffffffffffffffffffffffffffffff1681526020019081526020015f20805480602002602001604051908101604052809291908181526020015f905b828210156105c0578382905f5260205f2090600402016040518060800160405290815f82015f9054906101000a900473ffffffffffffffffffffffffffffffffffffffff1673ffffffffffffffffffffffffffffffffffffffff1673ffffffffffffffffffffffffffffffffffffffff16815260200160018201548152602001600282015481526020016003820154815250508152602001906001019061051e565b505050509050919050565b60015f3373ffffffffffffffffffffffffffffffffffffffff1673ffffffffffffffffffffffffffffffffffffffff1681526020019081526020015f2080549050811061064d576040517f08c379a0000000000000000000000000000000000000000000000000000000008152600401610644906110db565b60405180910390fd5b5f60015f3373ffffffffffffffffffffffffffffffffffffffff1673ffffffffffffffffffffffffffffffffffffffff1681526020019081526020015f20828154811061069d5761069c6110f9565b5b905f5260205f2090600402016040518060800160405290815f82015f9054906101000a900473ffffffffffffffffffffffffffffffffffffffff1673ffffffffffffffffffffffffffffffffffffffff1673ffffffffffffffffffffffffffffffffffffffff16815260200160018201548152602001600282015481526020016003820154815250509050806040015142101561076f576040517f08c379a000000000000000000000000000000000000000000000000000000000815260040161076690611170565b60405180910390fd5b6107793383610860565b805f015173ffffffffffffffffffffffffffffffffffffffff166323b872dd303384602001516040518463ffffffff1660e01b81526004016107bd93929190611027565b5f604051808303815f87803b1580156107d4575f80fd5b505af11580156107e6573d5f803e3d5ffd5b50505050805f015173ffffffffffffffffffffffffffffffffffffffff163373ffffffffffffffffffffffffffffffffffffffff167f2abf8b5fe6d16c9fffaea0f444d998e2856241f2404e70d24086cec75b783ce78360200151846060015160405161085492919061118e565b60405180910390a35050565b60015f8373ffffffffffffffffffffffffffffffffffffffff1673ffffffffffffffffffffffffffffffffffffffff1681526020019081526020015f208054905081106108e2576040517f08c379a00000000000000000000000000000000000000000000000000000000081526004016108d9906110db565b60405180910390fd5b60015f8373ffffffffffffffffffffffffffffffffffffffff1673ffffffffffffffffffffffffffffffffffffffff1681526020019081526020015f206001805f8573ffffffffffffffffffffffffffffffffffffffff1673ffffffffffffffffffffffffffffffffffffffff1681526020019081526020015f208054905061096b91906111b5565b8154811061097c5761097b6110f9565b5b905f5260205f20906004020160015f8473ffffffffffffffffffffffffffffffffffffffff1673ffffffffffffffffffffffffffffffffffffffff1681526020019081526020015f2082815481106109d7576109d66110f9565b5b905f5260205f2090600402015f82015f9054906101000a900473ffffffffffffffffffffffffffffffffffffffff16815f015f6101000a81548173ffffffffffffffffffffffffffffffffffffffff021916908373ffffffffffffffffffffffffffffffffffffffff16021790555060018201548160010155600282015481600201556003820154816003015590505060015f8373ffffffffffffffffffffffffffffffffffffffff1673ffffffffffffffffffffffffffffffffffffffff1681526020019081526020015f20805480610ab457610ab36111e8565b5b600190038181905f5260205f2090600402015f8082015f6101000a81549073ffffffffffffffffffffffffffffffffffffffff0219169055600182015f9055600282015f9055600382015f9055505090555050565b5f80fd5b5f73ffffffffffffffffffffffffffffffffffffffff82169050919050565b5f610b3682610b0d565b9050919050565b610b4681610b2c565b8114610b50575f80fd5b50565b5f81359050610b6181610b3d565b92915050565b5f819050919050565b610b7981610b67565b8114610b83575f80fd5b50565b5f81359050610b9481610b70565b92915050565b5f819050919050565b610bac81610b9a565b8114610bb6575f80fd5b50565b5f81359050610bc781610ba3565b92915050565b5f805f60608486031215610be457610be3610b09565b5b5f610bf186828701610b53565b9350506020610c0286828701610b86565b9250506040610c1386828701610bb9565b9150509250925092565b610c2681610b67565b82525050565b5f602082019050610c3f5f830184610c1d565b92915050565b5f8060408385031215610c5b57610c5a610b09565b5b5f610c6885828601610b53565b9250506020610c7985828601610b86565b9150509250929050565b610c8c81610b2c565b82525050565b610c9b81610b9a565b82525050565b5f608082019050610cb45f830187610c83565b610cc16020830186610c1d565b610cce6040830185610c1d565b610cdb6060830184610c92565b95945050505050565b5f60208284031215610cf957610cf8610b09565b5b5f610d0684828501610b53565b91505092915050565b5f81519050919050565b5f82825260208201905092915050565b5f819050602082019050919050565b610d4181610b2c565b82525050565b610d5081610b67565b82525050565b610d5f81610b9a565b82525050565b608082015f820151610d795f850182610d38565b506020820151610d8c6020850182610d47565b506040820151610d9f6040850182610d47565b506060820151610db26060850182610d56565b50505050565b5f610dc38383610d65565b60808301905092915050565b5f602082019050919050565b5f610de582610d0f565b610def8185610d19565b9350610dfa83610d29565b805f5b83811015610e2a578151610e118882610db8565b9750610e1c83610dcf565b925050600181019050610dfd565b5085935050505092915050565b5f6020820190508181035f830152610e4f8184610ddb565b905092915050565b5f60208284031215610e6c57610e6b610b09565b5b5f610e7984828501610b86565b91505092915050565b5f82825260208201905092915050565b7f48617368206d757374206265206e6f6e2d7a65726f00000000000000000000005f82015250565b5f610ec6601583610e82565b9150610ed182610e92565b602082019050919050565b5f6020820190508181035f830152610ef381610eba565b9050919050565b5f81519050610f0881610b3d565b92915050565b5f60208284031215610f2357610f22610b09565b5b5f610f3084828501610efa565b91505092915050565b7f4552433732313a206f70657261746f7220717565727920666f72206e6f6e65785f8201527f697374656e7420746f6b656e0000000000000000000000000000000000000000602082015250565b5f610f93602c83610e82565b9150610f9e82610f39565b604082019050919050565b5f6020820190508181035f830152610fc081610f87565b9050919050565b7f4e487b71000000000000000000000000000000000000000000000000000000005f52601160045260245ffd5b5f610ffe82610b67565b915061100983610b67565b925082820190508082111561102157611020610fc7565b5b92915050565b5f60608201905061103a5f830186610c83565b6110476020830185610c83565b6110546040830184610c1d565b949350505050565b5f60608201905061106f5f830186610c1d565b61107c6020830185610c1d565b6110896040830184610c92565b949350505050565b7f496e76616c696420696e646578000000000000000000000000000000000000005f82015250565b5f6110c5600d83610e82565b91506110d082611091565b602082019050919050565b5f6020820190508181035f8301526110f2816110b9565b9050919050565b7f4e487b71000000000000000000000000000000000000000000000000000000005f52603260045260245ffd5b7f546f6b656e206973207374696c6c206c6f636b656400000000000000000000005f82015250565b5f61115a601583610e82565b915061116582611126565b602082019050919050565b5f6020820190508181035f8301526111878161114e565b9050919050565b5f6040820190506111a15f830185610c1d565b6111ae6020830184610c92565b9392505050565b5f6111bf82610b67565b91506111ca83610b67565b92508282039050818111156111e2576111e1610fc7565b5b92915050565b7f4e487b71000000000000000000000000000000000000000000000000000000005f52603160045260245ffdfea264697066735822122077a3224e0fc4103c0940beeea27f39b033816dce59071c3e33629a9f7bb16a1b64736f6c63430008140033",
  "immutableReferences": {},
  "source": "// SPDX-License-Identifier: MIT\npragma solidity ^0.8.20;\n\nimport \"@openzeppelin/contracts/token/ERC721/IERC721.sol\";\n\ncontract ERC721TimeLock {\n    uint256 public constant HASH_BIT_SIZE = 256; // Example size for the hash\n    uint256 public lockPeriod; // State variable to store lock period\n\n    event TokenLocked(address indexed user, address indexed tokenAddress, uint256 tokenId, uint256 unlockTime, bytes32 hash);\n    event TokenUnlocked(address indexed user, address indexed tokenAddress, uint256 tokenId, bytes32 hash);\n\n    struct LockedToken {\n        address tokenAddress;\n        uint256 tokenId;\n        uint256 unlockTime;\n        bytes32 hash;\n    }\n\n    mapping(address => LockedToken[]) public lockedTokens;\n\n    constructor(uint256 _lockPeriod) {\n        require(_lockPeriod > 0, \"Lock period must be greater than 0\");\n        lockPeriod = _lockPeriod;\n    }\n\n    function lockToken(address _tokenAddress, uint256 _tokenId, bytes32 _hash) external {\n        require(_hash > 0, \"Hash must be non-zero\"); // Additional validation for hash\n\n        // Check if the token exists by calling ownerOf\n        address tokenOwner = IERC721(_tokenAddress).ownerOf(_tokenId);\n        require(tokenOwner != address(0), \"ERC721: operator query for nonexistent token\");\n\n        uint256 unlockTime = block.timestamp + lockPeriod;\n        IERC721(_tokenAddress).transferFrom(msg.sender, address(this), _tokenId);\n\n        lockedTokens[msg.sender].push(LockedToken({\n            tokenAddress: _tokenAddress,\n            tokenId: _tokenId,\n            unlockTime: unlockTime,\n            hash: _hash\n        }));\n\n        emit TokenLocked(msg.sender, _tokenAddress, _tokenId, unlockTime, _hash);\n    }\n\n    function unlockToken(uint256 _index) external {\n        require(_index < lockedTokens[msg.sender].length, \"Invalid index\");\n\n        LockedToken memory tokenInfo = lockedTokens[msg.sender][_index];\n        require(block.timestamp >= tokenInfo.unlockTime, \"Token is still locked\");\n\n        _removeLockedToken(msg.sender, _index);\n        IERC721(tokenInfo.tokenAddress).transferFrom(address(this), msg.sender, tokenInfo.tokenId);\n\n        emit TokenUnlocked(msg.sender, tokenInfo.tokenAddress, tokenInfo.tokenId, tokenInfo.hash);\n    }\n\n    function _removeLockedToken(address _user, uint256 _index) private {\n       require(_index < lockedTokens[_user].length, \"Invalid index\");\n\n        lockedTokens[_user][_index] = lockedTokens[_user][lockedTokens[_user].length - 1];\n        lockedTokens[_user].pop();\n    }\n\n    // Function to query locked tokens and their statuses for a user\n    function getLockedTokens(address _user) external view returns (LockedToken[] memory) {\n        return lockedTokens[_user];\n    }\n}\n",
  "sourcePath": "/home/anks/Sources/mlabs/mina/minauth-monorepo/minauth-plugins/minauth-eth-timelock-plugin/contracts/ERC721TimeLock.sol",
  "compiler": {
    "name": "solc",
    "version": "0.8.20+commit.a1b79de6.Emscripten.clang"
  },
  "schemaVersion": "3.4.16",
  "updatedAt": "2023-12-28T22:51:48.557Z",
  "devdoc": {
    "kind": "dev",
    "methods": {},
    "version": 1
  },
  "userdoc": {
    "kind": "user",
    "methods": {},
    "version": 1
  }
}